{
  "contractName": "MyContract",
  "abi": [
    {
      "inputs": [
        {
          "internalType": "address",
          "name": "_address",
          "type": "address"
        }
      ],
      "name": "getBalance",
      "outputs": [
        {
          "internalType": "uint256",
          "name": "",
          "type": "uint256"
        }
      ],
      "stateMutability": "view",
      "type": "function"
    },
    {
      "inputs": [
        {
          "internalType": "address payable",
          "name": "_recipient",
          "type": "address"
        }
      ],
      "name": "transferEther",
      "outputs": [],
      "stateMutability": "payable",
      "type": "function"
    }
  ],
  "bytecode": "0x608060405234801561000f575f80fd5b506102fb8061001d5f395ff3fe608060405260043610610028575f3560e01c80636b55e9911461002c578063f8b2cb4f14610048575b5f80fd5b6100466004803603810190610041919061018b565b610084565b005b348015610053575f80fd5b5061006e600480360381019061006991906101f1565b61010d565b60405161007b9190610234565b60405180910390f35b5f34116100c6576040517f08c379a00000000000000000000000000000000000000000000000000000000081526004016100bd906102a7565b60405180910390fd5b8073ffffffffffffffffffffffffffffffffffffffff166108fc3490811502906040515f60405180830381858888f19350505050158015610109573d5f803e3d5ffd5b5050565b5f8173ffffffffffffffffffffffffffffffffffffffff16319050919050565b5f80fd5b5f73ffffffffffffffffffffffffffffffffffffffff82169050919050565b5f61015a82610131565b9050919050565b61016a81610150565b8114610174575f80fd5b50565b5f8135905061018581610161565b92915050565b5f602082840312156101a05761019f61012d565b5b5f6101ad84828501610177565b91505092915050565b5f6101c082610131565b9050919050565b6101d0816101b6565b81146101da575f80fd5b50565b5f813590506101eb816101c7565b92915050565b5f602082840312156102065761020561012d565b5b5f610213848285016101dd565b91505092915050565b5f819050919050565b61022e8161021c565b82525050565b5f6020820190506102475f830184610225565b92915050565b5f82825260208201905092915050565b7f416d6f756e74206d7573742062652067726561746572207468616e20300000005f82015250565b5f610291601d8361024d565b915061029c8261025d565b602082019050919050565b5f6020820190508181035f8301526102be81610285565b905091905056fea264697066735822122045cdbc3c76d9bca787d9611846f07317ba046f7c4cd818c130246910354501eb64736f6c63430008150033",
  "immutableReferences": {},
  "source": "// File: MyContract.sol\r\n// SPDX-License-Identifier: MIT\r\npragma solidity ^0.8.0;\r\n\r\ncontract MyContract {\r\n    // ly a ch v v tin\r\n    function getBalance(address _address) public view returns (uint) {\r\n        return address(_address).balance;\r\n    }\r\n    // chuyn tin\r\n    function transferEther(address payable _recipient) public payable {\r\n        require(msg.value > 0, \"Amount must be greater than 0\");\r\n        _recipient.transfer(msg.value);\r\n    }\r\n}",
  "sourcePath": "D:\\Projects\\tokenerc20\\contracts\\MyContract.sol",
  "compiler": {
    "name": "solc",
    "version": "0.8.21+commit.d9974bed.Emscripten.clang"
  },
  "schemaVersion": "3.4.16",
  "updatedAt": "2023-12-27T15:02:20.307Z",
  "devdoc": {
    "kind": "dev",
    "methods": {},
    "version": 1
  },
  "userdoc": {
    "kind": "user",
    "methods": {},
    "version": 1
  }
}